{
  "_format": "hh-sol-artifact-1",
  "contractName": "Tree",
  "sourceName": "contracts/Tree.sol",
  "abi": [
    {
      "inputs": [
        {
          "internalType": "address",
          "name": "_treeToken",
          "type": "address"
        },
        {
          "internalType": "address",
          "name": "_uniRouter",
          "type": "address"
        },
        {
          "internalType": "address",
          "name": "_wMatic",
          "type": "address"
        }
      ],
      "stateMutability": "nonpayable",
      "type": "constructor"
    },
    {
      "anonymous": false,
      "inputs": [
        {
          "indexed": false,
          "internalType": "address",
          "name": "nftContract",
          "type": "address"
        },
        {
          "indexed": false,
          "internalType": "uint256",
          "name": "tokenId",
          "type": "uint256"
        },
        {
          "indexed": false,
          "internalType": "address",
          "name": "bidder",
          "type": "address"
        },
        {
          "indexed": false,
          "internalType": "uint256",
          "name": "price",
          "type": "uint256"
        },
        {
          "indexed": false,
          "internalType": "address",
          "name": "owner",
          "type": "address"
        }
      ],
      "name": "bidAccepted",
      "type": "event"
    },
    {
      "anonymous": false,
      "inputs": [
        {
          "indexed": false,
          "internalType": "address",
          "name": "nftContract",
          "type": "address"
        },
        {
          "indexed": false,
          "internalType": "uint256",
          "name": "tokenId",
          "type": "uint256"
        },
        {
          "indexed": false,
          "internalType": "address",
          "name": "bidder",
          "type": "address"
        },
        {
          "indexed": false,
          "internalType": "uint256",
          "name": "price",
          "type": "uint256"
        }
      ],
      "name": "bidCancelled",
      "type": "event"
    },
    {
      "anonymous": false,
      "inputs": [
        {
          "indexed": false,
          "internalType": "address",
          "name": "nftContract",
          "type": "address"
        },
        {
          "indexed": false,
          "internalType": "uint256",
          "name": "tokenId",
          "type": "uint256"
        },
        {
          "indexed": false,
          "internalType": "address",
          "name": "bidder",
          "type": "address"
        },
        {
          "indexed": false,
          "internalType": "uint256",
          "name": "price",
          "type": "uint256"
        }
      ],
      "name": "bidPlaced",
      "type": "event"
    },
    {
      "anonymous": false,
      "inputs": [
        {
          "indexed": false,
          "internalType": "address",
          "name": "nftContract",
          "type": "address"
        },
        {
          "indexed": false,
          "internalType": "uint256",
          "name": "tokenId",
          "type": "uint256"
        },
        {
          "indexed": false,
          "internalType": "address",
          "name": "bidder",
          "type": "address"
        },
        {
          "indexed": false,
          "internalType": "uint256",
          "name": "price",
          "type": "uint256"
        }
      ],
      "name": "bidRejected",
      "type": "event"
    },
    {
      "inputs": [
        {
          "internalType": "address",
          "name": "_nftContract",
          "type": "address"
        },
        {
          "internalType": "uint256",
          "name": "_tokenId",
          "type": "uint256"
        },
        {
          "internalType": "uint256",
          "name": "_price",
          "type": "uint256"
        }
      ],
      "name": "acceptBid",
      "outputs": [],
      "stateMutability": "nonpayable",
      "type": "function"
    },
    {
      "inputs": [
        {
          "internalType": "uint256",
          "name": "",
          "type": "uint256"
        }
      ],
      "name": "bids",
      "outputs": [
        {
          "internalType": "address",
          "name": "nftContract",
          "type": "address"
        },
        {
          "internalType": "uint256",
          "name": "tokenId",
          "type": "uint256"
        },
        {
          "internalType": "address",
          "name": "bidder",
          "type": "address"
        },
        {
          "internalType": "uint256",
          "name": "price",
          "type": "uint256"
        },
        {
          "internalType": "uint256",
          "name": "timestamp",
          "type": "uint256"
        }
      ],
      "stateMutability": "view",
      "type": "function"
    },
    {
      "inputs": [
        {
          "internalType": "address",
          "name": "_nftContract",
          "type": "address"
        },
        {
          "internalType": "uint256",
          "name": "_tokenId",
          "type": "uint256"
        }
      ],
      "name": "cancelBid",
      "outputs": [],
      "stateMutability": "nonpayable",
      "type": "function"
    },
    {
      "inputs": [
        {
          "internalType": "address",
          "name": "_nftContract",
          "type": "address"
        },
        {
          "internalType": "uint256",
          "name": "_tokenId",
          "type": "uint256"
        }
      ],
      "name": "getBid",
      "outputs": [
        {
          "components": [
            {
              "internalType": "address",
              "name": "nftContract",
              "type": "address"
            },
            {
              "internalType": "uint256",
              "name": "tokenId",
              "type": "uint256"
            },
            {
              "internalType": "address",
              "name": "bidder",
              "type": "address"
            },
            {
              "internalType": "uint256",
              "name": "price",
              "type": "uint256"
            },
            {
              "internalType": "uint256",
              "name": "timestamp",
              "type": "uint256"
            }
          ],
          "internalType": "struct Tree.Bid",
          "name": "",
          "type": "tuple"
        }
      ],
      "stateMutability": "view",
      "type": "function"
    },
    {
      "inputs": [
        {
          "internalType": "address",
          "name": "_nftContract",
          "type": "address"
        },
        {
          "internalType": "uint256",
          "name": "_tokenId",
          "type": "uint256"
        },
        {
          "internalType": "uint256",
          "name": "_price",
          "type": "uint256"
        }
      ],
      "name": "placeBid",
      "outputs": [],
      "stateMutability": "payable",
      "type": "function"
    },
    {
      "inputs": [
        {
          "internalType": "address",
          "name": "_nftContract",
          "type": "address"
        },
        {
          "internalType": "uint256",
          "name": "_tokenId",
          "type": "uint256"
        }
      ],
      "name": "rejectBid",
      "outputs": [],
      "stateMutability": "nonpayable",
      "type": "function"
    },
    {
      "inputs": [],
      "name": "swapRouter",
      "outputs": [
        {
          "internalType": "contract ISwapRouter",
          "name": "",
          "type": "address"
        }
      ],
      "stateMutability": "view",
      "type": "function"
    },
    {
      "inputs": [],
      "name": "treeToken",
      "outputs": [
        {
          "internalType": "address",
          "name": "",
          "type": "address"
        }
      ],
      "stateMutability": "view",
      "type": "function"
    },
    {
      "inputs": [],
      "name": "treeTokenMaxSupply",
      "outputs": [
        {
          "internalType": "uint256",
          "name": "",
          "type": "uint256"
        }
      ],
      "stateMutability": "view",
      "type": "function"
    },
    {
      "inputs": [],
      "name": "uniRouter",
      "outputs": [
        {
          "internalType": "address",
          "name": "",
          "type": "address"
        }
      ],
      "stateMutability": "view",
      "type": "function"
    },
    {
      "inputs": [],
      "name": "wMatic",
      "outputs": [
        {
          "internalType": "address",
          "name": "",
          "type": "address"
        }
      ],
      "stateMutability": "view",
      "type": "function"
    }
  ],
  "bytecode": "0x60a06040526a52b7d2dcc80cd2e40000006002553480156200002057600080fd5b5060405162002590380380620025908339818101604052810190620000469190620002b2565b82600160006101000a81548173ffffffffffffffffffffffffffffffffffffffff021916908373ffffffffffffffffffffffffffffffffffffffff16021790555081600360006101000a81548173ffffffffffffffffffffffffffffffffffffffff021916908373ffffffffffffffffffffffffffffffffffffffff160217905550600360009054906101000a900473ffffffffffffffffffffffffffffffffffffffff1673ffffffffffffffffffffffffffffffffffffffff1660808173ffffffffffffffffffffffffffffffffffffffff1660601b8152505080600460006101000a81548173ffffffffffffffffffffffffffffffffffffffff021916908373ffffffffffffffffffffffffffffffffffffffff16021790555060006040518060a00160405280600073ffffffffffffffffffffffffffffffffffffffff16815260200160008152602001600073ffffffffffffffffffffffffffffffffffffffff1681526020016000815260200142815250908060018154018082558091505060019003906000526020600020906005020160009091909190915060008201518160000160006101000a81548173ffffffffffffffffffffffffffffffffffffffff021916908373ffffffffffffffffffffffffffffffffffffffff1602179055506020820151816001015560408201518160020160006101000a81548173ffffffffffffffffffffffffffffffffffffffff021916908373ffffffffffffffffffffffffffffffffffffffff1602179055506060820151816003015560808201518160040155505050505062000361565b600081519050620002ac8162000347565b92915050565b600080600060608486031215620002ce57620002cd62000342565b5b6000620002de868287016200029b565b9350506020620002f1868287016200029b565b925050604062000304868287016200029b565b9150509250925092565b60006200031b8262000322565b9050919050565b600073ffffffffffffffffffffffffffffffffffffffff82169050919050565b600080fd5b62000352816200030e565b81146200035e57600080fd5b50565b60805160601c612210620003806000396000610fcc01526122106000f3fe60806040526004361061009c5760003560e01c80634423c5f1116100645780634423c5f114610179578063809d7902146101ba578063a0e47bf6146101e3578063c31c9c071461020e578063d6021cda14610239578063e13a40f0146102645761009c565b806304717aca146100a157806312cc3ab0146100bd57806316ab2b03146100e857806339b6b1e5146101255780633c81fdb41461014e575b600080fd5b6100bb60048036038101906100b691906118a6565b61028d565b005b3480156100c957600080fd5b506100d26106e6565b6040516100df9190611b1e565b60405180910390f35b3480156100f457600080fd5b5061010f600480360381019061010a9190611866565b61070c565b60405161011c9190611d9f565b60405180910390f35b34801561013157600080fd5b5061014c60048036038101906101479190611866565b6109de565b005b34801561015a57600080fd5b50610163610c6a565b6040516101709190611b1e565b60405180910390f35b34801561018557600080fd5b506101a0600480360381019061019b91906118f9565b610c90565b6040516101b1959493929190611c31565b60405180910390f35b3480156101c657600080fd5b506101e160048036038101906101dc9190611866565b610d16565b005b3480156101ef57600080fd5b506101f8610fa4565b6040516102059190611b1e565b60405180910390f35b34801561021a57600080fd5b50610223610fca565b6040516102309190611c84565b60405180910390f35b34801561024557600080fd5b5061024e610fee565b60405161025b9190611dba565b60405180910390f35b34801561027057600080fd5b5061028b600480360381019061028691906118a6565b610ff4565b005b6000610299848461143c565b9050600082116102de576040517f08c379a00000000000000000000000000000000000000000000000000000000081526004016102d590611cff565b60405180910390fd5b81341015610321576040517f08c379a000000000000000000000000000000000000000000000000000000000815260040161031890611d7f565b60405180910390fd5b60008114156104985760006040518060a001604052808673ffffffffffffffffffffffffffffffffffffffff1681526020018581526020013373ffffffffffffffffffffffffffffffffffffffff16815260200184815260200142815250908060018154018082558091505060019003906000526020600020906005020160009091909190915060008201518160000160006101000a81548173ffffffffffffffffffffffffffffffffffffffff021916908373ffffffffffffffffffffffffffffffffffffffff1602179055506020820151816001015560408201518160020160006101000a81548173ffffffffffffffffffffffffffffffffffffffff021916908373ffffffffffffffffffffffffffffffffffffffff160217905550606082015181600301556080820151816004015550507f671d29e6e358385ff390d2d1db4a3b1057cae93708e9ba31e83775d75be3c85d8484338560405161048b9493929190611b99565b60405180910390a16106e0565b81600082815481106104ad576104ac611fbe565b5b90600052602060002090600502016003015410156106a45760008082815481106104da576104d9611fbe565b5b906000526020600020906005020160020160009054906101000a900473ffffffffffffffffffffffffffffffffffffffff1690508073ffffffffffffffffffffffffffffffffffffffff166108fc6000848154811061053c5761053b611fbe565b5b9060005260206000209060050201600301549081150290604051600060405180830381858888f19350505050158015610579573d6000803e3d6000fd5b506040518060a001604052808673ffffffffffffffffffffffffffffffffffffffff1681526020018581526020013373ffffffffffffffffffffffffffffffffffffffff16815260200184815260200142815250600083815481106105e1576105e0611fbe565b5b906000526020600020906005020160008201518160000160006101000a81548173ffffffffffffffffffffffffffffffffffffffff021916908373ffffffffffffffffffffffffffffffffffffffff1602179055506020820151816001015560408201518160020160006101000a81548173ffffffffffffffffffffffffffffffffffffffff021916908373ffffffffffffffffffffffffffffffffffffffff1602179055506060820151816003015560808201518160040155905050506106df565b6040517f08c379a00000000000000000000000000000000000000000000000000000000081526004016106d690611d3f565b60405180910390fd5b5b50505050565b600160009054906101000a900473ffffffffffffffffffffffffffffffffffffffff1681565b61071461178a565b60005b6000805490508110156108dd578373ffffffffffffffffffffffffffffffffffffffff166000828154811061074f5761074e611fbe565b5b906000526020600020906005020160000160009054906101000a900473ffffffffffffffffffffffffffffffffffffffff1673ffffffffffffffffffffffffffffffffffffffff1614156108ca5782600082815481106107b2576107b1611fbe565b5b90600052602060002090600502016001015414156108c957600081815481106107de576107dd611fbe565b5b90600052602060002090600502016040518060a00160405290816000820160009054906101000a900473ffffffffffffffffffffffffffffffffffffffff1673ffffffffffffffffffffffffffffffffffffffff1673ffffffffffffffffffffffffffffffffffffffff168152602001600182015481526020016002820160009054906101000a900473ffffffffffffffffffffffffffffffffffffffff1673ffffffffffffffffffffffffffffffffffffffff1673ffffffffffffffffffffffffffffffffffffffff168152602001600382015481526020016004820154815250509150506109d8565b5b80806108d590611f17565b915050610717565b50600080815481106108f2576108f1611fbe565b5b90600052602060002090600502016040518060a00160405290816000820160009054906101000a900473ffffffffffffffffffffffffffffffffffffffff1673ffffffffffffffffffffffffffffffffffffffff1673ffffffffffffffffffffffffffffffffffffffff168152602001600182015481526020016002820160009054906101000a900473ffffffffffffffffffffffffffffffffffffffff1673ffffffffffffffffffffffffffffffffffffffff1673ffffffffffffffffffffffffffffffffffffffff1681526020016003820154815260200160048201548152505090505b92915050565b60006109ea838361143c565b905060008111610a2f576040517f08c379a0000000000000000000000000000000000000000000000000000000008152600401610a2690611cdf565b60405180910390fd5b3373ffffffffffffffffffffffffffffffffffffffff1660008281548110610a5a57610a59611fbe565b5b906000526020600020906005020160020160009054906101000a900473ffffffffffffffffffffffffffffffffffffffff1673ffffffffffffffffffffffffffffffffffffffff1614610ae2576040517f08c379a0000000000000000000000000000000000000000000000000000000008152600401610ad990611d5f565b60405180910390fd5b6000808281548110610af757610af6611fbe565b5b90600052602060002090600502016003015490506000808381548110610b2057610b1f611fbe565b5b906000526020600020906005020160020160009054906101000a900473ffffffffffffffffffffffffffffffffffffffff16905060008381548110610b6857610b67611fbe565b5b9060005260206000209060050201600080820160006101000a81549073ffffffffffffffffffffffffffffffffffffffff021916905560018201600090556002820160006101000a81549073ffffffffffffffffffffffffffffffffffffffff02191690556003820160009055600482016000905550508073ffffffffffffffffffffffffffffffffffffffff166108fc839081150290604051600060405180830381858888f19350505050158015610c25573d6000803e3d6000fd5b507f4078dcb398d67869c2f060d7f57d6d020941014781e41e9f5b4121f28fbf8aec85853385604051610c5b9493929190611b99565b60405180910390a15050505050565b600460009054906101000a900473ffffffffffffffffffffffffffffffffffffffff1681565b60008181548110610ca057600080fd5b90600052602060002090600502016000915090508060000160009054906101000a900473ffffffffffffffffffffffffffffffffffffffff16908060010154908060020160009054906101000a900473ffffffffffffffffffffffffffffffffffffffff16908060030154908060040154905085565b6000610d22838361143c565b905060008111610d67576040517f08c379a0000000000000000000000000000000000000000000000000000000008152600401610d5e90611cdf565b60405180910390fd5b60008373ffffffffffffffffffffffffffffffffffffffff16636352211e846040518263ffffffff1660e01b8152600401610da29190611dba565b60206040518083038186803b158015610dba57600080fd5b505afa158015610dce573d6000803e3d6000fd5b505050506040513d601f19601f82011682018060405250810190610df29190611839565b90508073ffffffffffffffffffffffffffffffffffffffff163373ffffffffffffffffffffffffffffffffffffffff1614610e62576040517f08c379a0000000000000000000000000000000000000000000000000000000008152600401610e5990611d1f565b60405180910390fd5b6000808381548110610e7757610e76611fbe565b5b906000526020600020906005020160020160009054906101000a900473ffffffffffffffffffffffffffffffffffffffff1690506000808481548110610ec057610ebf611fbe565b5b906000526020600020906005020160030154905060008481548110610ee857610ee7611fbe565b5b9060005260206000209060050201600080820160006101000a81549073ffffffffffffffffffffffffffffffffffffffff021916905560018201600090556002820160006101000a81549073ffffffffffffffffffffffffffffffffffffffff02191690556003820160009055600482016000905550507fb6dbd56ab3fa7ee715df9dc851a50b635f4f3fa7f10a58feefa9bf79cdd3586b86868484604051610f949493929190611b99565b60405180910390a1505050505050565b600360009054906101000a900473ffffffffffffffffffffffffffffffffffffffff1681565b7f000000000000000000000000000000000000000000000000000000000000000081565b60025481565b6000611000848461143c565b905060008111611045576040517f08c379a000000000000000000000000000000000000000000000000000000000815260040161103c90611cdf565b60405180910390fd5b6000818154811061105957611058611fbe565b5b90600052602060002090600502016003015482146110ac576040517f08c379a00000000000000000000000000000000000000000000000000000000081526004016110a390611c9f565b60405180910390fd5b60008473ffffffffffffffffffffffffffffffffffffffff16636352211e856040518263ffffffff1660e01b81526004016110e79190611dba565b60206040518083038186803b1580156110ff57600080fd5b505afa158015611113573d6000803e3d6000fd5b505050506040513d601f19601f820116820180604052508101906111379190611839565b90508073ffffffffffffffffffffffffffffffffffffffff163373ffffffffffffffffffffffffffffffffffffffff16146111a7576040517f08c379a000000000000000000000000000000000000000000000000000000000815260040161119e90611d1f565b60405180910390fd5b8473ffffffffffffffffffffffffffffffffffffffff166323b872dd82600085815481106111d8576111d7611fbe565b5b906000526020600020906005020160020160009054906101000a900473ffffffffffffffffffffffffffffffffffffffff16876040518463ffffffff1660e01b815260040161122993929190611b39565b600060405180830381600087803b15801561124357600080fd5b505af1158015611257573d6000803e3d6000fd5b5050505060006101906000848154811061127457611273611fbe565b5b9060005260206000209060050201600301546112909190611de6565b9050600081600085815481106112a9576112a8611fbe565b5b9060005260206000209060050201600301546112c59190611e71565b9050600083905060008086815481106112e1576112e0611fbe565b5b906000526020600020906005020160020160009054906101000a900473ffffffffffffffffffffffffffffffffffffffff1690506000868154811061132957611328611fbe565b5b9060005260206000209060050201600080820160006101000a81549073ffffffffffffffffffffffffffffffffffffffff021916905560018201600090556002820160006101000a81549073ffffffffffffffffffffffffffffffffffffffff02191690556003820160009055600482016000905550508173ffffffffffffffffffffffffffffffffffffffff166108fc849081150290604051600060405180830381858888f193505050501580156113e6573d6000803e3d6000fd5b507f774bb9b99ff0dd6b0797f7008ed0bf67fc270236557e18157b2d7ae604d31d688989838a8960405161141e959493929190611bde565b60405180910390a161143185828661151c565b505050505050505050565b6000806000905060005b600080549050811015611511578473ffffffffffffffffffffffffffffffffffffffff166000828154811061147e5761147d611fbe565b5b906000526020600020906005020160000160009054906101000a900473ffffffffffffffffffffffffffffffffffffffff1673ffffffffffffffffffffffffffffffffffffffff1614156114fe5783600082815481106114e1576114e0611fbe565b5b90600052602060002090600502016001015414156114fd578091505b5b808061150990611f17565b915050611446565b508091505092915050565b6000600160009054906101000a900473ffffffffffffffffffffffffffffffffffffffff1673ffffffffffffffffffffffffffffffffffffffff166318160ddd6040518163ffffffff1660e01b8152600401602060405180830381600087803b15801561158857600080fd5b505af115801561159c573d6000803e3d6000fd5b505050506040513d601f19601f820116820180604052508101906115c09190611926565b9050670de0b6b3a76400006002546115d89190611e71565b811015611784576000816002546115ef9190611e71565b905060006002546064836116039190611e17565b61160d9190611de6565b90506000818561161d9190611e17565b905060008111611662576040517f08c379a000000000000000000000000000000000000000000000000000000000815260040161165990611cbf565b60405180910390fd5b600160009054906101000a900473ffffffffffffffffffffffffffffffffffffffff1673ffffffffffffffffffffffffffffffffffffffff166340c10f1988836040518363ffffffff1660e01b81526004016116bf929190611b70565b600060405180830381600087803b1580156116d957600080fd5b505af11580156116ed573d6000803e3d6000fd5b50505050600160009054906101000a900473ffffffffffffffffffffffffffffffffffffffff1673ffffffffffffffffffffffffffffffffffffffff166340c10f1987836040518363ffffffff1660e01b815260040161174e929190611b70565b600060405180830381600087803b15801561176857600080fd5b505af115801561177c573d6000803e3d6000fd5b505050505050505b50505050565b6040518060a00160405280600073ffffffffffffffffffffffffffffffffffffffff16815260200160008152602001600073ffffffffffffffffffffffffffffffffffffffff16815260200160008152602001600081525090565b6000813590506117f4816121ac565b92915050565b600081519050611809816121ac565b92915050565b60008135905061181e816121c3565b92915050565b600081519050611833816121c3565b92915050565b60006020828403121561184f5761184e611fed565b5b600061185d848285016117fa565b91505092915050565b6000806040838503121561187d5761187c611fed565b5b600061188b858286016117e5565b925050602061189c8582860161180f565b9150509250929050565b6000806000606084860312156118bf576118be611fed565b5b60006118cd868287016117e5565b93505060206118de8682870161180f565b92505060406118ef8682870161180f565b9150509250925092565b60006020828403121561190f5761190e611fed565b5b600061191d8482850161180f565b91505092915050565b60006020828403121561193c5761193b611fed565b5b600061194a84828501611824565b91505092915050565b61195c81611ea5565b82525050565b61196b81611ea5565b82525050565b61197a81611ee1565b82525050565b600061198d602783611dd5565b915061199882611ff2565b604082019050919050565b60006119b0602183611dd5565b91506119bb82612041565b604082019050919050565b60006119d3600d83611dd5565b91506119de82612090565b602082019050919050565b60006119f6600d83611dd5565b9150611a01826120b9565b602082019050919050565b6000611a19601783611dd5565b9150611a24826120e2565b602082019050919050565b6000611a3c601983611dd5565b9150611a478261210b565b602082019050919050565b6000611a5f602983611dd5565b9150611a6a82612134565b604082019050919050565b6000611a82601283611dd5565b9150611a8d82612183565b602082019050919050565b60a082016000820151611aae6000850182611953565b506020820151611ac16020850182611b00565b506040820151611ad46040850182611953565b506060820151611ae76060850182611b00565b506080820151611afa6080850182611b00565b50505050565b611b0981611ed7565b82525050565b611b1881611ed7565b82525050565b6000602082019050611b336000830184611962565b92915050565b6000606082019050611b4e6000830186611962565b611b5b6020830185611962565b611b686040830184611b0f565b949350505050565b6000604082019050611b856000830185611962565b611b926020830184611b0f565b9392505050565b6000608082019050611bae6000830187611962565b611bbb6020830186611b0f565b611bc86040830185611962565b611bd56060830184611b0f565b95945050505050565b600060a082019050611bf36000830188611962565b611c006020830187611b0f565b611c0d6040830186611962565b611c1a6060830185611b0f565b611c276080830184611962565b9695505050505050565b600060a082019050611c466000830188611962565b611c536020830187611b0f565b611c606040830186611962565b611c6d6060830185611b0f565b611c7a6080830184611b0f565b9695505050505050565b6000602082019050611c996000830184611971565b92915050565b60006020820190508181036000830152611cb881611980565b9050919050565b60006020820190508181036000830152611cd8816119a3565b9050919050565b60006020820190508181036000830152611cf8816119c6565b9050919050565b60006020820190508181036000830152611d18816119e9565b9050919050565b60006020820190508181036000830152611d3881611a0c565b9050919050565b60006020820190508181036000830152611d5881611a2f565b9050919050565b60006020820190508181036000830152611d7881611a52565b9050919050565b60006020820190508181036000830152611d9881611a75565b9050919050565b600060a082019050611db46000830184611a98565b92915050565b6000602082019050611dcf6000830184611b0f565b92915050565b600082825260208201905092915050565b6000611df182611ed7565b9150611dfc83611ed7565b925082611e0c57611e0b611f8f565b5b828204905092915050565b6000611e2282611ed7565b9150611e2d83611ed7565b9250817fffffffffffffffffffffffffffffffffffffffffffffffffffffffffffffffff0483118215151615611e6657611e65611f60565b5b828202905092915050565b6000611e7c82611ed7565b9150611e8783611ed7565b925082821015611e9a57611e99611f60565b5b828203905092915050565b6000611eb082611eb7565b9050919050565b600073ffffffffffffffffffffffffffffffffffffffff82169050919050565b6000819050919050565b6000611eec82611ef3565b9050919050565b6000611efe82611f05565b9050919050565b6000611f1082611eb7565b9050919050565b6000611f2282611ed7565b91507fffffffffffffffffffffffffffffffffffffffffffffffffffffffffffffffff821415611f5557611f54611f60565b5b600182019050919050565b7f4e487b7100000000000000000000000000000000000000000000000000000000600052601160045260246000fd5b7f4e487b7100000000000000000000000000000000000000000000000000000000600052601260045260246000fd5b7f4e487b7100000000000000000000000000000000000000000000000000000000600052603260045260246000fd5b600080fd5b7f507269636520616363657074656420646f6573206e6f74206d6174636820626960008201527f6420707269636500000000000000000000000000000000000000000000000000602082015250565b7f57687920697320676f76546f6b656e44697374726f2062656c6f77207a65726f60008201527f3f00000000000000000000000000000000000000000000000000000000000000602082015250565b7f426964206e6f7420666f756e6400000000000000000000000000000000000000600082015250565b7f5072696365206e6f742073657400000000000000000000000000000000000000600082015250565b7f596f7520646f206e6f74206f776e2074686973204e4654000000000000000000600082015250565b7f4869676865722062696420616c726561647920706c6163656400000000000000600082015250565b7f43616e206e6f742063616e63656c2074686973206269642066726f6d2074686960008201527f7320616464726573730000000000000000000000000000000000000000000000602082015250565b7f46756e6473206e6f742072656365697665640000000000000000000000000000600082015250565b6121b581611ea5565b81146121c057600080fd5b50565b6121cc81611ed7565b81146121d757600080fd5b5056fea2646970667358221220507fb4997287ec5507580983f731c4764705dee08f6c6eafa1eb85d681498faa64736f6c63430008070033",
  "linkReferences": {},
  "deployedLinkReferences": {}
}