{
	"_format": "hh-sol-artifact-1",
	"contractName": "Tree",
	"sourceName": "contracts/Tree.sol",
	"abi": [
		{
			"inputs": [],
			"stateMutability": "nonpayable",
			"type": "constructor"
		},
		{
			"anonymous": false,
			"inputs": [
				{
					"indexed": false,
					"internalType": "address",
					"name": "nftContract",
					"type": "address"
				},
				{
					"indexed": false,
					"internalType": "uint256",
					"name": "tokenId",
					"type": "uint256"
				},
				{
					"indexed": false,
					"internalType": "address",
					"name": "bidder",
					"type": "address"
				},
				{
					"indexed": false,
					"internalType": "uint256",
					"name": "price",
					"type": "uint256"
				},
				{
					"indexed": false,
					"internalType": "address",
					"name": "owner",
					"type": "address"
				}
			],
			"name": "bidAccepted",
			"type": "event"
		},
		{
			"anonymous": false,
			"inputs": [
				{
					"indexed": false,
					"internalType": "address",
					"name": "nftContract",
					"type": "address"
				},
				{
					"indexed": false,
					"internalType": "uint256",
					"name": "tokenId",
					"type": "uint256"
				},
				{
					"indexed": false,
					"internalType": "address",
					"name": "bidder",
					"type": "address"
				},
				{
					"indexed": false,
					"internalType": "uint256",
					"name": "price",
					"type": "uint256"
				}
			],
			"name": "bidCancelled",
			"type": "event"
		},
		{
			"anonymous": false,
			"inputs": [
				{
					"indexed": false,
					"internalType": "address",
					"name": "nftContract",
					"type": "address"
				},
				{
					"indexed": false,
					"internalType": "uint256",
					"name": "tokenId",
					"type": "uint256"
				},
				{
					"indexed": false,
					"internalType": "address",
					"name": "bidder",
					"type": "address"
				},
				{
					"indexed": false,
					"internalType": "uint256",
					"name": "price",
					"type": "uint256"
				}
			],
			"name": "bidPlaced",
			"type": "event"
		},
		{
			"anonymous": false,
			"inputs": [
				{
					"indexed": false,
					"internalType": "address",
					"name": "nftContract",
					"type": "address"
				},
				{
					"indexed": false,
					"internalType": "uint256",
					"name": "tokenId",
					"type": "uint256"
				},
				{
					"indexed": false,
					"internalType": "address",
					"name": "bidder",
					"type": "address"
				},
				{
					"indexed": false,
					"internalType": "uint256",
					"name": "price",
					"type": "uint256"
				}
			],
			"name": "bidRejected",
			"type": "event"
		},
		{
			"inputs": [
				{
					"internalType": "address",
					"name": "_nftContract",
					"type": "address"
				},
				{
					"internalType": "uint256",
					"name": "_tokenId",
					"type": "uint256"
				},
				{
					"internalType": "uint256",
					"name": "_price",
					"type": "uint256"
				}
			],
			"name": "acceptBid",
			"outputs": [],
			"stateMutability": "nonpayable",
			"type": "function"
		},
		{
			"inputs": [
				{
					"internalType": "uint256",
					"name": "",
					"type": "uint256"
				}
			],
			"name": "bids",
			"outputs": [
				{
					"internalType": "address",
					"name": "nftContract",
					"type": "address"
				},
				{
					"internalType": "uint256",
					"name": "tokenId",
					"type": "uint256"
				},
				{
					"internalType": "address",
					"name": "bidder",
					"type": "address"
				},
				{
					"internalType": "uint256",
					"name": "price",
					"type": "uint256"
				},
				{
					"internalType": "uint256",
					"name": "timestamp",
					"type": "uint256"
				}
			],
			"stateMutability": "view",
			"type": "function"
		},
		{
			"inputs": [
				{
					"internalType": "address",
					"name": "_nftContract",
					"type": "address"
				},
				{
					"internalType": "uint256",
					"name": "_tokenId",
					"type": "uint256"
				}
			],
			"name": "cancelBid",
			"outputs": [],
			"stateMutability": "nonpayable",
			"type": "function"
		},
		{
			"inputs": [
				{
					"internalType": "address",
					"name": "_nftContract",
					"type": "address"
				},
				{
					"internalType": "uint256",
					"name": "_tokenId",
					"type": "uint256"
				}
			],
			"name": "getBid",
			"outputs": [
				{
					"components": [
						{
							"internalType": "address",
							"name": "nftContract",
							"type": "address"
						},
						{
							"internalType": "uint256",
							"name": "tokenId",
							"type": "uint256"
						},
						{
							"internalType": "address",
							"name": "bidder",
							"type": "address"
						},
						{
							"internalType": "uint256",
							"name": "price",
							"type": "uint256"
						},
						{
							"internalType": "uint256",
							"name": "timestamp",
							"type": "uint256"
						}
					],
					"internalType": "struct Tree.Bid",
					"name": "",
					"type": "tuple"
				}
			],
			"stateMutability": "view",
			"type": "function"
		},
		{
			"inputs": [
				{
					"internalType": "address",
					"name": "_nftContract",
					"type": "address"
				},
				{
					"internalType": "uint256",
					"name": "_tokenId",
					"type": "uint256"
				},
				{
					"internalType": "uint256",
					"name": "_price",
					"type": "uint256"
				}
			],
			"name": "placeBid",
			"outputs": [],
			"stateMutability": "payable",
			"type": "function"
		},
		{
			"inputs": [
				{
					"internalType": "address",
					"name": "_nftContract",
					"type": "address"
				},
				{
					"internalType": "uint256",
					"name": "_tokenId",
					"type": "uint256"
				}
			],
			"name": "rejectBid",
			"outputs": [],
			"stateMutability": "nonpayable",
			"type": "function"
		},
		{
			"inputs": [],
			"name": "treasury",
			"outputs": [
				{
					"internalType": "address",
					"name": "",
					"type": "address"
				}
			],
			"stateMutability": "view",
			"type": "function"
		},
		{
			"inputs": [
				{
					"internalType": "address",
					"name": "_newTreasury",
					"type": "address"
				}
			],
			"name": "updateTreasuryAddress",
			"outputs": [],
			"stateMutability": "nonpayable",
			"type": "function"
		}
	],
	"bytecode": "0x608060405234801561001057600080fd5b5033600160006101000a81548173ffffffffffffffffffffffffffffffffffffffff021916908373ffffffffffffffffffffffffffffffffffffffff16021790555060006040518060a00160405280600073ffffffffffffffffffffffffffffffffffffffff16815260200160008152602001600073ffffffffffffffffffffffffffffffffffffffff1681526020016000815260200142815250908060018154018082558091505060019003906000526020600020906005020160009091909190915060008201518160000160006101000a81548173ffffffffffffffffffffffffffffffffffffffff021916908373ffffffffffffffffffffffffffffffffffffffff1602179055506020820151816001015560408201518160020160006101000a81548173ffffffffffffffffffffffffffffffffffffffff021916908373ffffffffffffffffffffffffffffffffffffffff16021790555060608201518160030155608082015181600401555050611ec8806101916000396000f3fe60806040526004361061007b5760003560e01c806361d027b31161004e57806361d027b314610143578063809d79021461016e578063841e456114610197578063e13a40f0146101c05761007b565b806304717aca1461008057806316ab2b031461009c57806339b6b1e5146100d95780634423c5f114610102575b600080fd5b61009a6004803603810190610095919061166e565b6101e9565b005b3480156100a857600080fd5b506100c360048036038101906100be919061162e565b610642565b6040516100d09190611ae7565b60405180910390f35b3480156100e557600080fd5b5061010060048036038101906100fb919061162e565b610914565b005b34801561010e57600080fd5b50610129600480360381019061012491906116c1565b610ba0565b60405161013a959493929190611994565b60405180910390f35b34801561014f57600080fd5b50610158610c26565b60405161016591906118aa565b60405180910390f35b34801561017a57600080fd5b506101956004803603810190610190919061162e565b610c4c565b005b3480156101a357600080fd5b506101be60048036038101906101b991906115d4565b610eda565b005b3480156101cc57600080fd5b506101e760048036038101906101e2919061166e565b610fae565b005b60006101f5848461145a565b90506000821161023a576040517f08c379a000000000000000000000000000000000000000000000000000000000815260040161023190611a47565b60405180910390fd5b8134101561027d576040517f08c379a000000000000000000000000000000000000000000000000000000000815260040161027490611ac7565b60405180910390fd5b60008114156103f45760006040518060a001604052808673ffffffffffffffffffffffffffffffffffffffff1681526020018581526020013373ffffffffffffffffffffffffffffffffffffffff16815260200184815260200142815250908060018154018082558091505060019003906000526020600020906005020160009091909190915060008201518160000160006101000a81548173ffffffffffffffffffffffffffffffffffffffff021916908373ffffffffffffffffffffffffffffffffffffffff1602179055506020820151816001015560408201518160020160006101000a81548173ffffffffffffffffffffffffffffffffffffffff021916908373ffffffffffffffffffffffffffffffffffffffff160217905550606082015181600301556080820151816004015550507f671d29e6e358385ff390d2d1db4a3b1057cae93708e9ba31e83775d75be3c85d848433856040516103e794939291906118fc565b60405180910390a161063c565b816000828154811061040957610408611c76565b5b906000526020600020906005020160030154101561060057600080828154811061043657610435611c76565b5b906000526020600020906005020160020160009054906101000a900473ffffffffffffffffffffffffffffffffffffffff1690508073ffffffffffffffffffffffffffffffffffffffff166108fc6000848154811061049857610497611c76565b5b9060005260206000209060050201600301549081150290604051600060405180830381858888f193505050501580156104d5573d6000803e3d6000fd5b506040518060a001604052808673ffffffffffffffffffffffffffffffffffffffff1681526020018581526020013373ffffffffffffffffffffffffffffffffffffffff168152602001848152602001428152506000838154811061053d5761053c611c76565b5b906000526020600020906005020160008201518160000160006101000a81548173ffffffffffffffffffffffffffffffffffffffff021916908373ffffffffffffffffffffffffffffffffffffffff1602179055506020820151816001015560408201518160020160006101000a81548173ffffffffffffffffffffffffffffffffffffffff021916908373ffffffffffffffffffffffffffffffffffffffff16021790555060608201518160030155608082015181600401559050505061063b565b6040517f08c379a000000000000000000000000000000000000000000000000000000000815260040161063290611a87565b60405180910390fd5b5b50505050565b61064a61153a565b60005b600080549050811015610813578373ffffffffffffffffffffffffffffffffffffffff166000828154811061068557610684611c76565b5b906000526020600020906005020160000160009054906101000a900473ffffffffffffffffffffffffffffffffffffffff1673ffffffffffffffffffffffffffffffffffffffff1614156108005782600082815481106106e8576106e7611c76565b5b90600052602060002090600502016001015414156107ff576000818154811061071457610713611c76565b5b90600052602060002090600502016040518060a00160405290816000820160009054906101000a900473ffffffffffffffffffffffffffffffffffffffff1673ffffffffffffffffffffffffffffffffffffffff1673ffffffffffffffffffffffffffffffffffffffff168152602001600182015481526020016002820160009054906101000a900473ffffffffffffffffffffffffffffffffffffffff1673ffffffffffffffffffffffffffffffffffffffff1673ffffffffffffffffffffffffffffffffffffffff1681526020016003820154815260200160048201548152505091505061090e565b5b808061080b90611bcf565b91505061064d565b506000808154811061082857610827611c76565b5b90600052602060002090600502016040518060a00160405290816000820160009054906101000a900473ffffffffffffffffffffffffffffffffffffffff1673ffffffffffffffffffffffffffffffffffffffff1673ffffffffffffffffffffffffffffffffffffffff168152602001600182015481526020016002820160009054906101000a900473ffffffffffffffffffffffffffffffffffffffff1673ffffffffffffffffffffffffffffffffffffffff1673ffffffffffffffffffffffffffffffffffffffff1681526020016003820154815260200160048201548152505090505b92915050565b6000610920838361145a565b905060008111610965576040517f08c379a000000000000000000000000000000000000000000000000000000000815260040161095c90611a07565b60405180910390fd5b3373ffffffffffffffffffffffffffffffffffffffff16600082815481106109905761098f611c76565b5b906000526020600020906005020160020160009054906101000a900473ffffffffffffffffffffffffffffffffffffffff1673ffffffffffffffffffffffffffffffffffffffff1614610a18576040517f08c379a0000000000000000000000000000000000000000000000000000000008152600401610a0f90611aa7565b60405180910390fd5b6000808281548110610a2d57610a2c611c76565b5b90600052602060002090600502016003015490506000808381548110610a5657610a55611c76565b5b906000526020600020906005020160020160009054906101000a900473ffffffffffffffffffffffffffffffffffffffff16905060008381548110610a9e57610a9d611c76565b5b9060005260206000209060050201600080820160006101000a81549073ffffffffffffffffffffffffffffffffffffffff021916905560018201600090556002820160006101000a81549073ffffffffffffffffffffffffffffffffffffffff02191690556003820160009055600482016000905550508073ffffffffffffffffffffffffffffffffffffffff166108fc839081150290604051600060405180830381858888f19350505050158015610b5b573d6000803e3d6000fd5b507f4078dcb398d67869c2f060d7f57d6d020941014781e41e9f5b4121f28fbf8aec85853385604051610b9194939291906118fc565b60405180910390a15050505050565b60008181548110610bb057600080fd5b90600052602060002090600502016000915090508060000160009054906101000a900473ffffffffffffffffffffffffffffffffffffffff16908060010154908060020160009054906101000a900473ffffffffffffffffffffffffffffffffffffffff16908060030154908060040154905085565b600160009054906101000a900473ffffffffffffffffffffffffffffffffffffffff1681565b6000610c58838361145a565b905060008111610c9d576040517f08c379a0000000000000000000000000000000000000000000000000000000008152600401610c9490611a07565b60405180910390fd5b60008373ffffffffffffffffffffffffffffffffffffffff16636352211e846040518263ffffffff1660e01b8152600401610cd89190611b02565b60206040518083038186803b158015610cf057600080fd5b505afa158015610d04573d6000803e3d6000fd5b505050506040513d601f19601f82011682018060405250810190610d289190611601565b90508073ffffffffffffffffffffffffffffffffffffffff163373ffffffffffffffffffffffffffffffffffffffff1614610d98576040517f08c379a0000000000000000000000000000000000000000000000000000000008152600401610d8f90611a67565b60405180910390fd5b6000808381548110610dad57610dac611c76565b5b906000526020600020906005020160020160009054906101000a900473ffffffffffffffffffffffffffffffffffffffff1690506000808481548110610df657610df5611c76565b5b906000526020600020906005020160030154905060008481548110610e1e57610e1d611c76565b5b9060005260206000209060050201600080820160006101000a81549073ffffffffffffffffffffffffffffffffffffffff021916905560018201600090556002820160006101000a81549073ffffffffffffffffffffffffffffffffffffffff02191690556003820160009055600482016000905550507fb6dbd56ab3fa7ee715df9dc851a50b635f4f3fa7f10a58feefa9bf79cdd3586b86868484604051610eca94939291906118fc565b60405180910390a1505050505050565b600160009054906101000a900473ffffffffffffffffffffffffffffffffffffffff1673ffffffffffffffffffffffffffffffffffffffff163373ffffffffffffffffffffffffffffffffffffffff1614610f6a576040517f08c379a0000000000000000000000000000000000000000000000000000000008152600401610f6190611a27565b60405180910390fd5b80600160006101000a81548173ffffffffffffffffffffffffffffffffffffffff021916908373ffffffffffffffffffffffffffffffffffffffff16021790555050565b6000610fba848461145a565b905060008111610fff576040517f08c379a0000000000000000000000000000000000000000000000000000000008152600401610ff690611a07565b60405180910390fd5b6000818154811061101357611012611c76565b5b9060005260206000209060050201600301548214611066576040517f08c379a000000000000000000000000000000000000000000000000000000000815260040161105d906119e7565b60405180910390fd5b60008473ffffffffffffffffffffffffffffffffffffffff16636352211e856040518263ffffffff1660e01b81526004016110a19190611b02565b60206040518083038186803b1580156110b957600080fd5b505afa1580156110cd573d6000803e3d6000fd5b505050506040513d601f19601f820116820180604052508101906110f19190611601565b90508073ffffffffffffffffffffffffffffffffffffffff163373ffffffffffffffffffffffffffffffffffffffff1614611161576040517f08c379a000000000000000000000000000000000000000000000000000000000815260040161115890611a67565b60405180910390fd5b8473ffffffffffffffffffffffffffffffffffffffff166323b872dd826000858154811061119257611191611c76565b5b906000526020600020906005020160020160009054906101000a900473ffffffffffffffffffffffffffffffffffffffff16876040518463ffffffff1660e01b81526004016111e3939291906118c5565b600060405180830381600087803b1580156111fd57600080fd5b505af1158015611211573d6000803e3d6000fd5b5050505060006101906000848154811061122e5761122d611c76565b5b90600052602060002090600502016003015461124a9190611b2e565b90506000816000858154811061126357611262611c76565b5b90600052602060002090600502016003015461127f9190611b5f565b90506000600160009054906101000a900473ffffffffffffffffffffffffffffffffffffffff169050600084905060008087815481106112c2576112c1611c76565b5b906000526020600020906005020160020160009054906101000a900473ffffffffffffffffffffffffffffffffffffffff1690506000878154811061130a57611309611c76565b5b9060005260206000209060050201600080820160006101000a81549073ffffffffffffffffffffffffffffffffffffffff021916905560018201600090556002820160006101000a81549073ffffffffffffffffffffffffffffffffffffffff02191690556003820160009055600482016000905550508273ffffffffffffffffffffffffffffffffffffffff166108fc869081150290604051600060405180830381858888f193505050501580156113c7573d6000803e3d6000fd5b508173ffffffffffffffffffffffffffffffffffffffff166108fc859081150290604051600060405180830381858888f1935050505015801561140e573d6000803e3d6000fd5b507f774bb9b99ff0dd6b0797f7008ed0bf67fc270236557e18157b2d7ae604d31d688a8a838b8a604051611446959493929190611941565b60405180910390a150505050505050505050565b6000806000905060005b60008054905081101561152f578473ffffffffffffffffffffffffffffffffffffffff166000828154811061149c5761149b611c76565b5b906000526020600020906005020160000160009054906101000a900473ffffffffffffffffffffffffffffffffffffffff1673ffffffffffffffffffffffffffffffffffffffff16141561151c5783600082815481106114ff576114fe611c76565b5b906000526020600020906005020160010154141561151b578091505b5b808061152790611bcf565b915050611464565b508091505092915050565b6040518060a00160405280600073ffffffffffffffffffffffffffffffffffffffff16815260200160008152602001600073ffffffffffffffffffffffffffffffffffffffff16815260200160008152602001600081525090565b6000813590506115a481611e64565b92915050565b6000815190506115b981611e64565b92915050565b6000813590506115ce81611e7b565b92915050565b6000602082840312156115ea576115e9611ca5565b5b60006115f884828501611595565b91505092915050565b60006020828403121561161757611616611ca5565b5b6000611625848285016115aa565b91505092915050565b6000806040838503121561164557611644611ca5565b5b600061165385828601611595565b9250506020611664858286016115bf565b9150509250929050565b60008060006060848603121561168757611686611ca5565b5b600061169586828701611595565b93505060206116a6868287016115bf565b92505060406116b7868287016115bf565b9150509250925092565b6000602082840312156116d7576116d6611ca5565b5b60006116e5848285016115bf565b91505092915050565b6116f781611b93565b82525050565b61170681611b93565b82525050565b6000611719602783611b1d565b915061172482611caa565b604082019050919050565b600061173c600d83611b1d565b915061174782611cf9565b602082019050919050565b600061175f602683611b1d565b915061176a82611d22565b604082019050919050565b6000611782600d83611b1d565b915061178d82611d71565b602082019050919050565b60006117a5601783611b1d565b91506117b082611d9a565b602082019050919050565b60006117c8601983611b1d565b91506117d382611dc3565b602082019050919050565b60006117eb602983611b1d565b91506117f682611dec565b604082019050919050565b600061180e601283611b1d565b915061181982611e3b565b602082019050919050565b60a08201600082015161183a60008501826116ee565b50602082015161184d602085018261188c565b50604082015161186060408501826116ee565b506060820151611873606085018261188c565b506080820151611886608085018261188c565b50505050565b61189581611bc5565b82525050565b6118a481611bc5565b82525050565b60006020820190506118bf60008301846116fd565b92915050565b60006060820190506118da60008301866116fd565b6118e760208301856116fd565b6118f4604083018461189b565b949350505050565b600060808201905061191160008301876116fd565b61191e602083018661189b565b61192b60408301856116fd565b611938606083018461189b565b95945050505050565b600060a08201905061195660008301886116fd565b611963602083018761189b565b61197060408301866116fd565b61197d606083018561189b565b61198a60808301846116fd565b9695505050505050565b600060a0820190506119a960008301886116fd565b6119b6602083018761189b565b6119c360408301866116fd565b6119d0606083018561189b565b6119dd608083018461189b565b9695505050505050565b60006020820190508181036000830152611a008161170c565b9050919050565b60006020820190508181036000830152611a208161172f565b9050919050565b60006020820190508181036000830152611a4081611752565b9050919050565b60006020820190508181036000830152611a6081611775565b9050919050565b60006020820190508181036000830152611a8081611798565b9050919050565b60006020820190508181036000830152611aa0816117bb565b9050919050565b60006020820190508181036000830152611ac0816117de565b9050919050565b60006020820190508181036000830152611ae081611801565b9050919050565b600060a082019050611afc6000830184611824565b92915050565b6000602082019050611b17600083018461189b565b92915050565b600082825260208201905092915050565b6000611b3982611bc5565b9150611b4483611bc5565b925082611b5457611b53611c47565b5b828204905092915050565b6000611b6a82611bc5565b9150611b7583611bc5565b925082821015611b8857611b87611c18565b5b828203905092915050565b6000611b9e82611ba5565b9050919050565b600073ffffffffffffffffffffffffffffffffffffffff82169050919050565b6000819050919050565b6000611bda82611bc5565b91507fffffffffffffffffffffffffffffffffffffffffffffffffffffffffffffffff821415611c0d57611c0c611c18565b5b600182019050919050565b7f4e487b7100000000000000000000000000000000000000000000000000000000600052601160045260246000fd5b7f4e487b7100000000000000000000000000000000000000000000000000000000600052601260045260246000fd5b7f4e487b7100000000000000000000000000000000000000000000000000000000600052603260045260246000fd5b600080fd5b7f507269636520616363657074656420646f6573206e6f74206d6174636820626960008201527f6420707269636500000000000000000000000000000000000000000000000000602082015250565b7f426964206e6f7420666f756e6400000000000000000000000000000000000000600082015250565b7f557064617465206d75737420636f6d652066726f6d207472656173757279206160008201527f6464726573730000000000000000000000000000000000000000000000000000602082015250565b7f5072696365206e6f742073657400000000000000000000000000000000000000600082015250565b7f596f7520646f206e6f74206f776e2074686973204e4654000000000000000000600082015250565b7f4869676865722062696420616c726561647920706c6163656400000000000000600082015250565b7f43616e206e6f742063616e63656c2074686973206269642066726f6d2074686960008201527f7320616464726573730000000000000000000000000000000000000000000000602082015250565b7f46756e6473206e6f742072656365697665640000000000000000000000000000600082015250565b611e6d81611b93565b8114611e7857600080fd5b50565b611e8481611bc5565b8114611e8f57600080fd5b5056fea2646970667358221220404187747c2804c6ccb591279d4c0324181ffa90039ffaa390abcd050c3804a864736f6c63430008070033",
	"linkReferences": {},
	"deployedLinkReferences": {}
}